{
  "_format": "hh-sol-artifact-1",
  "contractName": "BavugarOpenEdition",
  "sourceName": "contracts/BavugarOpenEdition.sol",
  "abi": [
    {
      "inputs": [
        {
          "internalType": "address[]",
          "name": "payees",
          "type": "address[]"
        },
        {
          "internalType": "uint256[]",
          "name": "shares",
          "type": "uint256[]"
        }
      ],
      "stateMutability": "nonpayable",
      "type": "constructor"
    },
    {
      "inputs": [],
      "name": "ApprovalCallerNotOwnerNorApproved",
      "type": "error"
    },
    {
      "inputs": [],
      "name": "ApprovalQueryForNonexistentToken",
      "type": "error"
    },
    {
      "inputs": [],
      "name": "ApprovalToCurrentOwner",
      "type": "error"
    },
    {
      "inputs": [],
      "name": "ApproveToCaller",
      "type": "error"
    },
    {
      "inputs": [],
      "name": "BalanceQueryForZeroAddress",
      "type": "error"
    },
    {
      "inputs": [],
      "name": "MintToZeroAddress",
      "type": "error"
    },
    {
      "inputs": [],
      "name": "MintZeroQuantity",
      "type": "error"
    },
    {
      "inputs": [],
      "name": "OwnerQueryForNonexistentToken",
      "type": "error"
    },
    {
      "inputs": [],
      "name": "TransferCallerNotOwnerNorApproved",
      "type": "error"
    },
    {
      "inputs": [],
      "name": "TransferFromIncorrectOwner",
      "type": "error"
    },
    {
      "inputs": [],
      "name": "TransferToNonERC721ReceiverImplementer",
      "type": "error"
    },
    {
      "inputs": [],
      "name": "TransferToZeroAddress",
      "type": "error"
    },
    {
      "anonymous": false,
      "inputs": [
        {
          "indexed": true,
          "internalType": "address",
          "name": "owner",
          "type": "address"
        },
        {
          "indexed": true,
          "internalType": "address",
          "name": "approved",
          "type": "address"
        },
        {
          "indexed": true,
          "internalType": "uint256",
          "name": "tokenId",
          "type": "uint256"
        }
      ],
      "name": "Approval",
      "type": "event"
    },
    {
      "anonymous": false,
      "inputs": [
        {
          "indexed": true,
          "internalType": "address",
          "name": "owner",
          "type": "address"
        },
        {
          "indexed": true,
          "internalType": "address",
          "name": "operator",
          "type": "address"
        },
        {
          "indexed": false,
          "internalType": "bool",
          "name": "approved",
          "type": "bool"
        }
      ],
      "name": "ApprovalForAll",
      "type": "event"
    },
    {
      "anonymous": false,
      "inputs": [
        {
          "indexed": true,
          "internalType": "contract IERC20",
          "name": "token",
          "type": "address"
        },
        {
          "indexed": false,
          "internalType": "address",
          "name": "to",
          "type": "address"
        },
        {
          "indexed": false,
          "internalType": "uint256",
          "name": "amount",
          "type": "uint256"
        }
      ],
      "name": "ERC20PaymentReleased",
      "type": "event"
    },
    {
      "anonymous": false,
      "inputs": [
        {
          "indexed": true,
          "internalType": "address",
          "name": "previousOwner",
          "type": "address"
        },
        {
          "indexed": true,
          "internalType": "address",
          "name": "newOwner",
          "type": "address"
        }
      ],
      "name": "OwnershipTransferred",
      "type": "event"
    },
    {
      "anonymous": false,
      "inputs": [
        {
          "indexed": false,
          "internalType": "address",
          "name": "account",
          "type": "address"
        },
        {
          "indexed": false,
          "internalType": "uint256",
          "name": "shares",
          "type": "uint256"
        }
      ],
      "name": "PayeeAdded",
      "type": "event"
    },
    {
      "anonymous": false,
      "inputs": [
        {
          "indexed": false,
          "internalType": "address",
          "name": "from",
          "type": "address"
        },
        {
          "indexed": false,
          "internalType": "uint256",
          "name": "amount",
          "type": "uint256"
        }
      ],
      "name": "PaymentReceived",
      "type": "event"
    },
    {
      "anonymous": false,
      "inputs": [
        {
          "indexed": false,
          "internalType": "address",
          "name": "to",
          "type": "address"
        },
        {
          "indexed": false,
          "internalType": "uint256",
          "name": "amount",
          "type": "uint256"
        }
      ],
      "name": "PaymentReleased",
      "type": "event"
    },
    {
      "anonymous": false,
      "inputs": [
        {
          "indexed": true,
          "internalType": "address",
          "name": "from",
          "type": "address"
        },
        {
          "indexed": true,
          "internalType": "address",
          "name": "to",
          "type": "address"
        },
        {
          "indexed": true,
          "internalType": "uint256",
          "name": "tokenId",
          "type": "uint256"
        }
      ],
      "name": "Transfer",
      "type": "event"
    },
    {
      "inputs": [
        {
          "internalType": "address",
          "name": "to",
          "type": "address"
        },
        {
          "internalType": "uint256",
          "name": "tokenId",
          "type": "uint256"
        }
      ],
      "name": "approve",
      "outputs": [],
      "stateMutability": "nonpayable",
      "type": "function"
    },
    {
      "inputs": [
        {
          "internalType": "address",
          "name": "owner",
          "type": "address"
        }
      ],
      "name": "balanceOf",
      "outputs": [
        {
          "internalType": "uint256",
          "name": "",
          "type": "uint256"
        }
      ],
      "stateMutability": "view",
      "type": "function"
    },
    {
      "inputs": [
        {
          "internalType": "uint256",
          "name": "tokenId",
          "type": "uint256"
        }
      ],
      "name": "getApproved",
      "outputs": [
        {
          "internalType": "address",
          "name": "",
          "type": "address"
        }
      ],
      "stateMutability": "view",
      "type": "function"
    },
    {
      "inputs": [
        {
          "internalType": "address",
          "name": "owner",
          "type": "address"
        },
        {
          "internalType": "address",
          "name": "operator",
          "type": "address"
        }
      ],
      "name": "isApprovedForAll",
      "outputs": [
        {
          "internalType": "bool",
          "name": "",
          "type": "bool"
        }
      ],
      "stateMutability": "view",
      "type": "function"
    },
    {
      "inputs": [],
      "name": "isPaused",
      "outputs": [
        {
          "internalType": "bool",
          "name": "",
          "type": "bool"
        }
      ],
      "stateMutability": "view",
      "type": "function"
    },
    {
      "inputs": [],
      "name": "maxPurchase",
      "outputs": [
        {
          "internalType": "uint16",
          "name": "",
          "type": "uint16"
        }
      ],
      "stateMutability": "view",
      "type": "function"
    },
    {
      "inputs": [
        {
          "internalType": "uint256",
          "name": "numberOfTokens",
          "type": "uint256"
        }
      ],
      "name": "mintNFT",
      "outputs": [],
      "stateMutability": "payable",
      "type": "function"
    },
    {
      "inputs": [],
      "name": "mintPrice",
      "outputs": [
        {
          "internalType": "uint256",
          "name": "",
          "type": "uint256"
        }
      ],
      "stateMutability": "view",
      "type": "function"
    },
    {
      "inputs": [],
      "name": "name",
      "outputs": [
        {
          "internalType": "string",
          "name": "",
          "type": "string"
        }
      ],
      "stateMutability": "view",
      "type": "function"
    },
    {
      "inputs": [],
      "name": "owner",
      "outputs": [
        {
          "internalType": "address",
          "name": "",
          "type": "address"
        }
      ],
      "stateMutability": "view",
      "type": "function"
    },
    {
      "inputs": [
        {
          "internalType": "uint256",
          "name": "tokenId",
          "type": "uint256"
        }
      ],
      "name": "ownerOf",
      "outputs": [
        {
          "internalType": "address",
          "name": "",
          "type": "address"
        }
      ],
      "stateMutability": "view",
      "type": "function"
    },
    {
      "inputs": [
        {
          "internalType": "uint256",
          "name": "index",
          "type": "uint256"
        }
      ],
      "name": "payee",
      "outputs": [
        {
          "internalType": "address",
          "name": "",
          "type": "address"
        }
      ],
      "stateMutability": "view",
      "type": "function"
    },
    {
      "inputs": [
        {
          "internalType": "address payable",
          "name": "account",
          "type": "address"
        }
      ],
      "name": "release",
      "outputs": [],
      "stateMutability": "nonpayable",
      "type": "function"
    },
    {
      "inputs": [
        {
          "internalType": "contract IERC20",
          "name": "token",
          "type": "address"
        },
        {
          "internalType": "address",
          "name": "account",
          "type": "address"
        }
      ],
      "name": "release",
      "outputs": [],
      "stateMutability": "nonpayable",
      "type": "function"
    },
    {
      "inputs": [
        {
          "internalType": "contract IERC20",
          "name": "token",
          "type": "address"
        },
        {
          "internalType": "address",
          "name": "account",
          "type": "address"
        }
      ],
      "name": "released",
      "outputs": [
        {
          "internalType": "uint256",
          "name": "",
          "type": "uint256"
        }
      ],
      "stateMutability": "view",
      "type": "function"
    },
    {
      "inputs": [
        {
          "internalType": "address",
          "name": "account",
          "type": "address"
        }
      ],
      "name": "released",
      "outputs": [
        {
          "internalType": "uint256",
          "name": "",
          "type": "uint256"
        }
      ],
      "stateMutability": "view",
      "type": "function"
    },
    {
      "inputs": [],
      "name": "renounceOwnership",
      "outputs": [],
      "stateMutability": "nonpayable",
      "type": "function"
    },
    {
      "inputs": [
        {
          "internalType": "address",
          "name": "from",
          "type": "address"
        },
        {
          "internalType": "address",
          "name": "to",
          "type": "address"
        },
        {
          "internalType": "uint256",
          "name": "tokenId",
          "type": "uint256"
        }
      ],
      "name": "safeTransferFrom",
      "outputs": [],
      "stateMutability": "nonpayable",
      "type": "function"
    },
    {
      "inputs": [
        {
          "internalType": "address",
          "name": "from",
          "type": "address"
        },
        {
          "internalType": "address",
          "name": "to",
          "type": "address"
        },
        {
          "internalType": "uint256",
          "name": "tokenId",
          "type": "uint256"
        },
        {
          "internalType": "bytes",
          "name": "_data",
          "type": "bytes"
        }
      ],
      "name": "safeTransferFrom",
      "outputs": [],
      "stateMutability": "nonpayable",
      "type": "function"
    },
    {
      "inputs": [
        {
          "internalType": "address",
          "name": "operator",
          "type": "address"
        },
        {
          "internalType": "bool",
          "name": "approved",
          "type": "bool"
        }
      ],
      "name": "setApprovalForAll",
      "outputs": [],
      "stateMutability": "nonpayable",
      "type": "function"
    },
    {
      "inputs": [
        {
          "internalType": "uint256",
          "name": "newPrice",
          "type": "uint256"
        }
      ],
      "name": "setPrice",
      "outputs": [],
      "stateMutability": "nonpayable",
      "type": "function"
    },
    {
      "inputs": [
        {
          "internalType": "address",
          "name": "account",
          "type": "address"
        }
      ],
      "name": "shares",
      "outputs": [
        {
          "internalType": "uint256",
          "name": "",
          "type": "uint256"
        }
      ],
      "stateMutability": "view",
      "type": "function"
    },
    {
      "inputs": [
        {
          "internalType": "bytes4",
          "name": "interfaceId",
          "type": "bytes4"
        }
      ],
      "name": "supportsInterface",
      "outputs": [
        {
          "internalType": "bool",
          "name": "",
          "type": "bool"
        }
      ],
      "stateMutability": "view",
      "type": "function"
    },
    {
      "inputs": [],
      "name": "symbol",
      "outputs": [
        {
          "internalType": "string",
          "name": "",
          "type": "string"
        }
      ],
      "stateMutability": "view",
      "type": "function"
    },
    {
      "inputs": [],
      "name": "togglePause",
      "outputs": [],
      "stateMutability": "nonpayable",
      "type": "function"
    },
    {
      "inputs": [
        {
          "internalType": "uint256",
          "name": "tokenId",
          "type": "uint256"
        }
      ],
      "name": "tokenURI",
      "outputs": [
        {
          "internalType": "string",
          "name": "",
          "type": "string"
        }
      ],
      "stateMutability": "view",
      "type": "function"
    },
    {
      "inputs": [
        {
          "internalType": "contract IERC20",
          "name": "token",
          "type": "address"
        }
      ],
      "name": "totalReleased",
      "outputs": [
        {
          "internalType": "uint256",
          "name": "",
          "type": "uint256"
        }
      ],
      "stateMutability": "view",
      "type": "function"
    },
    {
      "inputs": [],
      "name": "totalReleased",
      "outputs": [
        {
          "internalType": "uint256",
          "name": "",
          "type": "uint256"
        }
      ],
      "stateMutability": "view",
      "type": "function"
    },
    {
      "inputs": [],
      "name": "totalShares",
      "outputs": [
        {
          "internalType": "uint256",
          "name": "",
          "type": "uint256"
        }
      ],
      "stateMutability": "view",
      "type": "function"
    },
    {
      "inputs": [],
      "name": "totalSupply",
      "outputs": [
        {
          "internalType": "uint256",
          "name": "",
          "type": "uint256"
        }
      ],
      "stateMutability": "view",
      "type": "function"
    },
    {
      "inputs": [
        {
          "internalType": "address",
          "name": "from",
          "type": "address"
        },
        {
          "internalType": "address",
          "name": "to",
          "type": "address"
        },
        {
          "internalType": "uint256",
          "name": "tokenId",
          "type": "uint256"
        }
      ],
      "name": "transferFrom",
      "outputs": [],
      "stateMutability": "nonpayable",
      "type": "function"
    },
    {
      "inputs": [
        {
          "internalType": "address",
          "name": "newOwner",
          "type": "address"
        }
      ],
      "name": "transferOwnership",
      "outputs": [],
      "stateMutability": "nonpayable",
      "type": "function"
    },
    {
      "stateMutability": "payable",
      "type": "receive"
    }
  ],
  "bytecode": "0x608060405266b1a2bc2ec500006010556014601160006101000a81548161ffff021916908361ffff1602179055506001601160026101000a81548160ff02191690831515021790555060006012553480156200005a57600080fd5b5060405162004f4a38038062004f4a8339818101604052810190620000809190620007d7565b81816040518060400160405280601081526020017f42617675676172202d20526973696e67000000000000000000000000000000008152506040518060400160405280600681526020017f524953494e470000000000000000000000000000000000000000000000000000815250816002908051906020019062000106929190620005b5565b5080600390805190602001906200011f929190620005b5565b5062000130620002a860201b60201c565b600081905550505080518251146200017f576040517f08c379a000000000000000000000000000000000000000000000000000000000815260040162000176906200097e565b60405180910390fd5b6000825111620001c6576040517f08c379a0000000000000000000000000000000000000000000000000000000008152600401620001bd90620009c2565b60405180910390fd5b60005b82518110156200027d576200026783828151811062000211577f4e487b7100000000000000000000000000000000000000000000000000000000600052603260045260246000fd5b602002602001015183838151811062000253577f4e487b7100000000000000000000000000000000000000000000000000000000600052603260045260246000fd5b6020026020010151620002ad60201b60201c565b8080620002749062000ba5565b915050620001c9565b505050620002a062000294620004e760201b60201c565b620004ef60201b60201c565b505062000e04565b600090565b600073ffffffffffffffffffffffffffffffffffffffff168273ffffffffffffffffffffffffffffffffffffffff16141562000320576040517f08c379a000000000000000000000000000000000000000000000000000000000815260040162000317906200095c565b60405180910390fd5b6000811162000366576040517f08c379a00000000000000000000000000000000000000000000000000000000081526004016200035d90620009e4565b60405180910390fd5b6000600a60008473ffffffffffffffffffffffffffffffffffffffff1673ffffffffffffffffffffffffffffffffffffffff1681526020019081526020016000205414620003eb576040517f08c379a0000000000000000000000000000000000000000000000000000000008152600401620003e290620009a0565b60405180910390fd5b600c829080600181540180825580915050600190039060005260206000200160009091909190916101000a81548173ffffffffffffffffffffffffffffffffffffffff021916908373ffffffffffffffffffffffffffffffffffffffff16021790555080600a60008473ffffffffffffffffffffffffffffffffffffffff1673ffffffffffffffffffffffffffffffffffffffff1681526020019081526020016000208190555080600854620004a2919062000a9e565b6008819055507f40c340f65e17194d14ddddb073d3c9f888e3cb52b5aae0c6c7706b4fbc905fac8282604051620004db9291906200092f565b60405180910390a15050565b600033905090565b6000600f60009054906101000a900473ffffffffffffffffffffffffffffffffffffffff16905081600f60006101000a81548173ffffffffffffffffffffffffffffffffffffffff021916908373ffffffffffffffffffffffffffffffffffffffff1602179055508173ffffffffffffffffffffffffffffffffffffffff168173ffffffffffffffffffffffffffffffffffffffff167f8be0079c531659141344cd1fd0a4f28419497f9722a3daafe3b4186f6b6457e060405160405180910390a35050565b828054620005c39062000b39565b90600052602060002090601f016020900481019282620005e7576000855562000633565b82601f106200060257805160ff191683800117855562000633565b8280016001018555821562000633579182015b828111156200063257825182559160200191906001019062000615565b5b50905062000642919062000646565b5090565b5b808211156200066157600081600090555060010162000647565b5090565b60006200067c620006768462000a2f565b62000a06565b905080838252602082019050828560208602820111156200069c57600080fd5b60005b85811015620006d05781620006b588826200074f565b8452602084019350602083019250506001810190506200069f565b5050509392505050565b6000620006f1620006eb8462000a5e565b62000a06565b905080838252602082019050828560208602820111156200071157600080fd5b60005b858110156200074557816200072a8882620007c0565b84526020840193506020830192505060018101905062000714565b5050509392505050565b600081519050620007608162000dd0565b92915050565b600082601f8301126200077857600080fd5b81516200078a84826020860162000665565b91505092915050565b600082601f830112620007a557600080fd5b8151620007b7848260208601620006da565b91505092915050565b600081519050620007d18162000dea565b92915050565b60008060408385031215620007eb57600080fd5b600083015167ffffffffffffffff8111156200080657600080fd5b620008148582860162000766565b925050602083015167ffffffffffffffff8111156200083257600080fd5b620008408582860162000793565b9150509250929050565b620008558162000afb565b82525050565b60006200086a602c8362000a8d565b9150620008778262000c91565b604082019050919050565b60006200089160328362000a8d565b91506200089e8262000ce0565b604082019050919050565b6000620008b8602b8362000a8d565b9150620008c58262000d2f565b604082019050919050565b6000620008df601a8362000a8d565b9150620008ec8262000d7e565b602082019050919050565b600062000906601d8362000a8d565b9150620009138262000da7565b602082019050919050565b620009298162000b2f565b82525050565b60006040820190506200094660008301856200084a565b6200095560208301846200091e565b9392505050565b6000602082019050818103600083015262000977816200085b565b9050919050565b60006020820190508181036000830152620009998162000882565b9050919050565b60006020820190508181036000830152620009bb81620008a9565b9050919050565b60006020820190508181036000830152620009dd81620008d0565b9050919050565b60006020820190508181036000830152620009ff81620008f7565b9050919050565b600062000a1262000a25565b905062000a20828262000b6f565b919050565b6000604051905090565b600067ffffffffffffffff82111562000a4d5762000a4c62000c51565b5b602082029050602081019050919050565b600067ffffffffffffffff82111562000a7c5762000a7b62000c51565b5b602082029050602081019050919050565b600082825260208201905092915050565b600062000aab8262000b2f565b915062000ab88362000b2f565b9250827fffffffffffffffffffffffffffffffffffffffffffffffffffffffffffffffff0382111562000af05762000aef62000bf3565b5b828201905092915050565b600062000b088262000b0f565b9050919050565b600073ffffffffffffffffffffffffffffffffffffffff82169050919050565b6000819050919050565b6000600282049050600182168062000b5257607f821691505b6020821081141562000b695762000b6862000c22565b5b50919050565b62000b7a8262000c80565b810181811067ffffffffffffffff8211171562000b9c5762000b9b62000c51565b5b80604052505050565b600062000bb28262000b2f565b91507fffffffffffffffffffffffffffffffffffffffffffffffffffffffffffffffff82141562000be85762000be762000bf3565b5b600182019050919050565b7f4e487b7100000000000000000000000000000000000000000000000000000000600052601160045260246000fd5b7f4e487b7100000000000000000000000000000000000000000000000000000000600052602260045260246000fd5b7f4e487b7100000000000000000000000000000000000000000000000000000000600052604160045260246000fd5b6000601f19601f8301169050919050565b7f5061796d656e7453706c69747465723a206163636f756e74206973207468652060008201527f7a65726f20616464726573730000000000000000000000000000000000000000602082015250565b7f5061796d656e7453706c69747465723a2070617965657320616e64207368617260008201527f6573206c656e677468206d69736d617463680000000000000000000000000000602082015250565b7f5061796d656e7453706c69747465723a206163636f756e7420616c726561647960008201527f2068617320736861726573000000000000000000000000000000000000000000602082015250565b7f5061796d656e7453706c69747465723a206e6f20706179656573000000000000600082015250565b7f5061796d656e7453706c69747465723a20736861726573206172652030000000600082015250565b62000ddb8162000afb565b811462000de757600080fd5b50565b62000df58162000b2f565b811462000e0157600080fd5b50565b6141368062000e146000396000f3fe6080604052600436106101e75760003560e01c80638da5cb5b11610102578063b88d4fde11610095578063d79779b211610064578063d79779b214610742578063e33b7de31461077f578063e985e9c5146107aa578063f2fde38b146107e75761022e565b8063b88d4fde14610688578063c4ae3168146106b1578063c87b56dd146106c8578063ce7c2ac2146107055761022e565b8063977b055b116100d1578063977b055b146105cc5780639852595c146105f7578063a22cb46514610634578063b187bd261461065d5761022e565b80638da5cb5b1461053157806391b7f5ed1461055c578063926427441461058557806395d89b41146105a15761022e565b8063406072a91161017a5780636817c76c116101495780636817c76c1461047557806370a08231146104a0578063715018a6146104dd5780638b83209b146104f45761022e565b8063406072a9146103a957806342842e0e146103e657806348b750441461040f5780636352211e146104385761022e565b806318160ddd116101b657806318160ddd14610301578063191655871461032c57806323b872dd146103555780633a98ef391461037e5761022e565b806301ffc9a71461023357806306fdde0314610270578063081812fc1461029b578063095ea7b3146102d85761022e565b3661022e577f6ef95f06320e7a25a04a175ca677b7052bdd97131872c2192525a629f51be770610215610810565b3460405161022492919061362d565b60405180910390a1005b600080fd5b34801561023f57600080fd5b5061025a60048036038101906102559190613135565b610818565b6040516102679190613656565b60405180910390f35b34801561027c57600080fd5b506102856108fa565b6040516102929190613671565b60405180910390f35b3480156102a757600080fd5b506102c260048036038101906102bd91906131ec565b61098c565b6040516102cf919061359d565b60405180910390f35b3480156102e457600080fd5b506102ff60048036038101906102fa91906130d0565b610a08565b005b34801561030d57600080fd5b50610316610b13565b604051610323919061386e565b60405180910390f35b34801561033857600080fd5b50610353600480360381019061034e9190612f65565b610b1d565b005b34801561036157600080fd5b5061037c60048036038101906103779190612fca565b610cc8565b005b34801561038a57600080fd5b50610393610cd8565b6040516103a0919061386e565b60405180910390f35b3480156103b557600080fd5b506103d060048036038101906103cb91906131b0565b610ce2565b6040516103dd919061386e565b60405180910390f35b3480156103f257600080fd5b5061040d60048036038101906104089190612fca565b610d69565b005b34801561041b57600080fd5b50610436600480360381019061043191906131b0565b610d89565b005b34801561044457600080fd5b5061045f600480360381019061045a91906131ec565b611051565b60405161046c919061359d565b60405180910390f35b34801561048157600080fd5b5061048a611067565b604051610497919061386e565b60405180910390f35b3480156104ac57600080fd5b506104c760048036038101906104c29190612f3c565b61106d565b6040516104d4919061386e565b60405180910390f35b3480156104e957600080fd5b506104f261113d565b005b34801561050057600080fd5b5061051b600480360381019061051691906131ec565b6111c5565b604051610528919061359d565b60405180910390f35b34801561053d57600080fd5b50610546611233565b604051610553919061359d565b60405180910390f35b34801561056857600080fd5b50610583600480360381019061057e91906131ec565b61125d565b005b61059f600480360381019061059a91906131ec565b611339565b005b3480156105ad57600080fd5b506105b6611456565b6040516105c39190613671565b60405180910390f35b3480156105d857600080fd5b506105e16114e8565b6040516105ee9190613853565b60405180910390f35b34801561060357600080fd5b5061061e60048036038101906106199190612f3c565b6114fc565b60405161062b919061386e565b60405180910390f35b34801561064057600080fd5b5061065b60048036038101906106569190613094565b611545565b005b34801561066957600080fd5b506106726116bd565b60405161067f9190613656565b60405180910390f35b34801561069457600080fd5b506106af60048036038101906106aa9190613019565b6116d0565b005b3480156106bd57600080fd5b506106c661174c565b005b3480156106d457600080fd5b506106ef60048036038101906106ea91906131ec565b6117f4565b6040516106fc9190613671565b60405180910390f35b34801561071157600080fd5b5061072c60048036038101906107279190612f3c565b611863565b604051610739919061386e565b60405180910390f35b34801561074e57600080fd5b5061076960048036038101906107649190613187565b6118ac565b604051610776919061386e565b60405180910390f35b34801561078b57600080fd5b506107946118f5565b6040516107a1919061386e565b60405180910390f35b3480156107b657600080fd5b506107d160048036038101906107cc9190612f8e565b6118ff565b6040516107de9190613656565b60405180910390f35b3480156107f357600080fd5b5061080e60048036038101906108099190612f3c565b611993565b005b600033905090565b60007f80ac58cd000000000000000000000000000000000000000000000000000000007bffffffffffffffffffffffffffffffffffffffffffffffffffffffff1916827bffffffffffffffffffffffffffffffffffffffffffffffffffffffff191614806108e357507f5b5e139f000000000000000000000000000000000000000000000000000000007bffffffffffffffffffffffffffffffffffffffffffffffffffffffff1916827bffffffffffffffffffffffffffffffffffffffffffffffffffffffff1916145b806108f357506108f282611a8b565b5b9050919050565b60606002805461090990613b60565b80601f016020809104026020016040519081016040528092919081815260200182805461093590613b60565b80156109825780601f1061095757610100808354040283529160200191610982565b820191906000526020600020905b81548152906001019060200180831161096557829003601f168201915b5050505050905090565b600061099782611af5565b6109cd576040517fcf4700e400000000000000000000000000000000000000000000000000000000815260040160405180910390fd5b6006600083815260200190815260200160002060009054906101000a900473ffffffffffffffffffffffffffffffffffffffff169050919050565b6000610a1382611051565b90508073ffffffffffffffffffffffffffffffffffffffff168373ffffffffffffffffffffffffffffffffffffffff161415610a7b576040517f943f7b8c00000000000000000000000000000000000000000000000000000000815260040160405180910390fd5b8073ffffffffffffffffffffffffffffffffffffffff16610a9a610810565b73ffffffffffffffffffffffffffffffffffffffff1614158015610acc5750610aca81610ac5610810565b6118ff565b155b15610b03576040517fcfb3b94200000000000000000000000000000000000000000000000000000000815260040160405180910390fd5b610b0e838383611b43565b505050565b6000601254905090565b6000600a60008373ffffffffffffffffffffffffffffffffffffffff1673ffffffffffffffffffffffffffffffffffffffff1681526020019081526020016000205411610b9f576040517f08c379a0000000000000000000000000000000000000000000000000000000008152600401610b96906136f3565b60405180910390fd5b6000610ba96118f5565b47610bb4919061392d565b90506000610bcb8383610bc6866114fc565b611bf5565b90506000811415610c11576040517f08c379a0000000000000000000000000000000000000000000000000000000008152600401610c0890613793565b60405180910390fd5b80600b60008573ffffffffffffffffffffffffffffffffffffffff1673ffffffffffffffffffffffffffffffffffffffff1681526020019081526020016000206000828254610c60919061392d565b925050819055508060096000828254610c79919061392d565b92505081905550610c8a8382611c63565b7fdf20fd1e76bc69d672e4814fafb2c449bba3a5369d8359adf9e05e6fde87b0568382604051610cbb9291906135b8565b60405180910390a1505050565b610cd3838383611d57565b505050565b6000600854905090565b6000600e60008473ffffffffffffffffffffffffffffffffffffffff1673ffffffffffffffffffffffffffffffffffffffff16815260200190815260200160002060008373ffffffffffffffffffffffffffffffffffffffff1673ffffffffffffffffffffffffffffffffffffffff16815260200190815260200160002054905092915050565b610d84838383604051806020016040528060008152506116d0565b505050565b6000600a60008373ffffffffffffffffffffffffffffffffffffffff1673ffffffffffffffffffffffffffffffffffffffff1681526020019081526020016000205411610e0b576040517f08c379a0000000000000000000000000000000000000000000000000000000008152600401610e02906136f3565b60405180910390fd5b6000610e16836118ac565b8373ffffffffffffffffffffffffffffffffffffffff166370a08231306040518263ffffffff1660e01b8152600401610e4f919061359d565b60206040518083038186803b158015610e6757600080fd5b505afa158015610e7b573d6000803e3d6000fd5b505050506040513d601f19601f82011682018060405250810190610e9f9190613215565b610ea9919061392d565b90506000610ec18383610ebc8787610ce2565b611bf5565b90506000811415610f07576040517f08c379a0000000000000000000000000000000000000000000000000000000008152600401610efe90613793565b60405180910390fd5b80600e60008673ffffffffffffffffffffffffffffffffffffffff1673ffffffffffffffffffffffffffffffffffffffff16815260200190815260200160002060008573ffffffffffffffffffffffffffffffffffffffff1673ffffffffffffffffffffffffffffffffffffffff1681526020019081526020016000206000828254610f93919061392d565b9250508190555080600d60008673ffffffffffffffffffffffffffffffffffffffff1673ffffffffffffffffffffffffffffffffffffffff1681526020019081526020016000206000828254610fe9919061392d565b92505081905550610ffb84848361220d565b8373ffffffffffffffffffffffffffffffffffffffff167f3be5b7a71e84ed12875d241991c70855ac5817d847039e17a9d895c1ceb0f18a848360405161104392919061362d565b60405180910390a250505050565b600061105c82612293565b600001519050919050565b60105481565b60008073ffffffffffffffffffffffffffffffffffffffff168273ffffffffffffffffffffffffffffffffffffffff1614156110d5576040517f8f4eb60400000000000000000000000000000000000000000000000000000000815260040160405180910390fd5b600560008373ffffffffffffffffffffffffffffffffffffffff1673ffffffffffffffffffffffffffffffffffffffff16815260200190815260200160002060000160009054906101000a900467ffffffffffffffff1667ffffffffffffffff169050919050565b611145610810565b73ffffffffffffffffffffffffffffffffffffffff16611163611233565b73ffffffffffffffffffffffffffffffffffffffff16146111b9576040517f08c379a00000000000000000000000000000000000000000000000000000000081526004016111b0906137d3565b60405180910390fd5b6111c36000612522565b565b6000600c8281548110611201577f4e487b7100000000000000000000000000000000000000000000000000000000600052603260045260246000fd5b9060005260206000200160009054906101000a900473ffffffffffffffffffffffffffffffffffffffff169050919050565b6000600f60009054906101000a900473ffffffffffffffffffffffffffffffffffffffff16905090565b611265610810565b73ffffffffffffffffffffffffffffffffffffffff16611283611233565b73ffffffffffffffffffffffffffffffffffffffff16146112d9576040517f08c379a00000000000000000000000000000000000000000000000000000000081526004016112d0906137d3565b60405180910390fd5b6000811161131c576040517f08c379a0000000000000000000000000000000000000000000000000000000008152600401611313906137f3565b60405180910390fd5b670de0b6b3a76400008161133091906139b4565b60108190555050565b601160029054906101000a900460ff1615611389576040517f08c379a0000000000000000000000000000000000000000000000000000000008152600401611380906137b3565b60405180910390fd5b601160009054906101000a900461ffff1661ffff168111156113e0576040517f08c379a00000000000000000000000000000000000000000000000000000000081526004016113d7906136d3565b60405180910390fd5b34816010546113ef91906139b4565b1115611430576040517f08c379a000000000000000000000000000000000000000000000000000000000815260040161142790613693565b60405180910390fd5b61143a33826125e8565b806012600082825461144c919061392d565b9250508190555050565b60606003805461146590613b60565b80601f016020809104026020016040519081016040528092919081815260200182805461149190613b60565b80156114de5780601f106114b3576101008083540402835291602001916114de565b820191906000526020600020905b8154815290600101906020018083116114c157829003601f168201915b5050505050905090565b601160009054906101000a900461ffff1681565b6000600b60008373ffffffffffffffffffffffffffffffffffffffff1673ffffffffffffffffffffffffffffffffffffffff168152602001908152602001600020549050919050565b61154d610810565b73ffffffffffffffffffffffffffffffffffffffff168273ffffffffffffffffffffffffffffffffffffffff1614156115b2576040517fb06307db00000000000000000000000000000000000000000000000000000000815260040160405180910390fd5b80600760006115bf610810565b73ffffffffffffffffffffffffffffffffffffffff1673ffffffffffffffffffffffffffffffffffffffff16815260200190815260200160002060008473ffffffffffffffffffffffffffffffffffffffff1673ffffffffffffffffffffffffffffffffffffffff16815260200190815260200160002060006101000a81548160ff0219169083151502179055508173ffffffffffffffffffffffffffffffffffffffff1661166c610810565b73ffffffffffffffffffffffffffffffffffffffff167f17307eab39ab6107e8899845ad3d59bd9653f200f220920489ca2b5937696c31836040516116b19190613656565b60405180910390a35050565b601160029054906101000a900460ff1681565b6116db848484611d57565b6116fa8373ffffffffffffffffffffffffffffffffffffffff16612606565b801561170f575061170d84848484612629565b155b15611746576040517fd1a57ed600000000000000000000000000000000000000000000000000000000815260040160405180910390fd5b50505050565b611754610810565b73ffffffffffffffffffffffffffffffffffffffff16611772611233565b73ffffffffffffffffffffffffffffffffffffffff16146117c8576040517f08c379a00000000000000000000000000000000000000000000000000000000081526004016117bf906137d3565b60405180910390fd5b601160029054906101000a900460ff1615601160026101000a81548160ff021916908315150217905550565b60606117ff82611af5565b61183e576040517f08c379a000000000000000000000000000000000000000000000000000000000815260040161183590613733565b60405180910390fd5b60405160200161184d90613573565b6040516020818303038152906040529050919050565b6000600a60008373ffffffffffffffffffffffffffffffffffffffff1673ffffffffffffffffffffffffffffffffffffffff168152602001908152602001600020549050919050565b6000600d60008373ffffffffffffffffffffffffffffffffffffffff1673ffffffffffffffffffffffffffffffffffffffff168152602001908152602001600020549050919050565b6000600954905090565b6000600760008473ffffffffffffffffffffffffffffffffffffffff1673ffffffffffffffffffffffffffffffffffffffff16815260200190815260200160002060008373ffffffffffffffffffffffffffffffffffffffff1673ffffffffffffffffffffffffffffffffffffffff16815260200190815260200160002060009054906101000a900460ff16905092915050565b61199b610810565b73ffffffffffffffffffffffffffffffffffffffff166119b9611233565b73ffffffffffffffffffffffffffffffffffffffff1614611a0f576040517f08c379a0000000000000000000000000000000000000000000000000000000008152600401611a06906137d3565b60405180910390fd5b600073ffffffffffffffffffffffffffffffffffffffff168173ffffffffffffffffffffffffffffffffffffffff161415611a7f576040517f08c379a0000000000000000000000000000000000000000000000000000000008152600401611a76906136b3565b60405180910390fd5b611a8881612522565b50565b60007f01ffc9a7000000000000000000000000000000000000000000000000000000007bffffffffffffffffffffffffffffffffffffffffffffffffffffffff1916827bffffffffffffffffffffffffffffffffffffffffffffffffffffffff1916149050919050565b600081611b00612789565b11158015611b0f575060005482105b8015611b3c575060046000838152602001908152602001600020600001601c9054906101000a900460ff16155b9050919050565b826006600084815260200190815260200160002060006101000a81548173ffffffffffffffffffffffffffffffffffffffff021916908373ffffffffffffffffffffffffffffffffffffffff160217905550818373ffffffffffffffffffffffffffffffffffffffff168273ffffffffffffffffffffffffffffffffffffffff167f8c5be1e5ebec7d5bd14f71427d1e84f3dd0314c0f7b2291e5b200ac8c7c3b92560405160405180910390a4505050565b600081600854600a60008773ffffffffffffffffffffffffffffffffffffffff1673ffffffffffffffffffffffffffffffffffffffff1681526020019081526020016000205485611c4691906139b4565b611c509190613983565b611c5a9190613a0e565b90509392505050565b80471015611ca6576040517f08c379a0000000000000000000000000000000000000000000000000000000008152600401611c9d90613753565b60405180910390fd5b60008273ffffffffffffffffffffffffffffffffffffffff1682604051611ccc90613588565b60006040518083038185875af1925050503d8060008114611d09576040519150601f19603f3d011682016040523d82523d6000602084013e611d0e565b606091505b5050905080611d52576040517f08c379a0000000000000000000000000000000000000000000000000000000008152600401611d4990613713565b60405180910390fd5b505050565b6000611d6282612293565b90508373ffffffffffffffffffffffffffffffffffffffff16816000015173ffffffffffffffffffffffffffffffffffffffff1614611dcd576040517fa114810000000000000000000000000000000000000000000000000000000000815260040160405180910390fd5b60008473ffffffffffffffffffffffffffffffffffffffff16611dee610810565b73ffffffffffffffffffffffffffffffffffffffff161480611e1d5750611e1c85611e17610810565b6118ff565b5b80611e625750611e2b610810565b73ffffffffffffffffffffffffffffffffffffffff16611e4a8461098c565b73ffffffffffffffffffffffffffffffffffffffff16145b905080611e9b576040517f59c896be00000000000000000000000000000000000000000000000000000000815260040160405180910390fd5b600073ffffffffffffffffffffffffffffffffffffffff168473ffffffffffffffffffffffffffffffffffffffff161415611f02576040517fea553b3400000000000000000000000000000000000000000000000000000000815260040160405180910390fd5b611f0f858585600161278e565b611f1b60008487611b43565b6001600560008773ffffffffffffffffffffffffffffffffffffffff1673ffffffffffffffffffffffffffffffffffffffff16815260200190815260200160002060000160008282829054906101000a900467ffffffffffffffff160392506101000a81548167ffffffffffffffff021916908367ffffffffffffffff1602179055506001600560008673ffffffffffffffffffffffffffffffffffffffff1673ffffffffffffffffffffffffffffffffffffffff16815260200190815260200160002060000160008282829054906101000a900467ffffffffffffffff160192506101000a81548167ffffffffffffffff021916908367ffffffffffffffff1602179055506000600460008581526020019081526020016000209050848160000160006101000a81548173ffffffffffffffffffffffffffffffffffffffff021916908373ffffffffffffffffffffffffffffffffffffffff160217905550428160000160146101000a81548167ffffffffffffffff021916908367ffffffffffffffff16021790555060006001850190506000600460008381526020019081526020016000209050600073ffffffffffffffffffffffffffffffffffffffff168160000160009054906101000a900473ffffffffffffffffffffffffffffffffffffffff1673ffffffffffffffffffffffffffffffffffffffff16141561219b57600054821461219a57878160000160006101000a81548173ffffffffffffffffffffffffffffffffffffffff021916908373ffffffffffffffffffffffffffffffffffffffff16021790555084602001518160000160146101000a81548167ffffffffffffffff021916908367ffffffffffffffff1602179055505b5b505050828473ffffffffffffffffffffffffffffffffffffffff168673ffffffffffffffffffffffffffffffffffffffff167fddf252ad1be2c89b69c2b068fc378daa952ba7f163c4a11628f55a4df523b3ef60405160405180910390a46122068585856001612794565b5050505050565b61228e8363a9059cbb60e01b848460405160240161222c92919061362d565b604051602081830303815290604052907bffffffffffffffffffffffffffffffffffffffffffffffffffffffff19166020820180517bffffffffffffffffffffffffffffffffffffffffffffffffffffffff838183161783525050505061279a565b505050565b61229b612dd4565b6000829050806122a9612789565b111580156122b8575060005481105b156124eb576000600460008381526020019081526020016000206040518060600160405290816000820160009054906101000a900473ffffffffffffffffffffffffffffffffffffffff1673ffffffffffffffffffffffffffffffffffffffff1673ffffffffffffffffffffffffffffffffffffffff1681526020016000820160149054906101000a900467ffffffffffffffff1667ffffffffffffffff1667ffffffffffffffff16815260200160008201601c9054906101000a900460ff161515151581525050905080604001516124e957600073ffffffffffffffffffffffffffffffffffffffff16816000015173ffffffffffffffffffffffffffffffffffffffff16146123cd57809250505061251d565b5b6001156124e857818060019003925050600460008381526020019081526020016000206040518060600160405290816000820160009054906101000a900473ffffffffffffffffffffffffffffffffffffffff1673ffffffffffffffffffffffffffffffffffffffff1673ffffffffffffffffffffffffffffffffffffffff1681526020016000820160149054906101000a900467ffffffffffffffff1667ffffffffffffffff1667ffffffffffffffff16815260200160008201601c9054906101000a900460ff1615151515815250509050600073ffffffffffffffffffffffffffffffffffffffff16816000015173ffffffffffffffffffffffffffffffffffffffff16146124e357809250505061251d565b6123ce565b5b505b6040517fdf2d9b4200000000000000000000000000000000000000000000000000000000815260040160405180910390fd5b919050565b6000600f60009054906101000a900473ffffffffffffffffffffffffffffffffffffffff16905081600f60006101000a81548173ffffffffffffffffffffffffffffffffffffffff021916908373ffffffffffffffffffffffffffffffffffffffff1602179055508173ffffffffffffffffffffffffffffffffffffffff168173ffffffffffffffffffffffffffffffffffffffff167f8be0079c531659141344cd1fd0a4f28419497f9722a3daafe3b4186f6b6457e060405160405180910390a35050565b612602828260405180602001604052806000815250612861565b5050565b6000808273ffffffffffffffffffffffffffffffffffffffff163b119050919050565b60008373ffffffffffffffffffffffffffffffffffffffff1663150b7a0261264f610810565b8786866040518563ffffffff1660e01b815260040161267194939291906135e1565b602060405180830381600087803b15801561268b57600080fd5b505af19250505080156126bc57506040513d601f19601f820116820180604052508101906126b9919061315e565b60015b612736573d80600081146126ec576040519150601f19603f3d011682016040523d82523d6000602084013e6126f1565b606091505b5060008151141561272e576040517fd1a57ed600000000000000000000000000000000000000000000000000000000815260040160405180910390fd5b805181602001fd5b63150b7a0260e01b7bffffffffffffffffffffffffffffffffffffffffffffffffffffffff1916817bffffffffffffffffffffffffffffffffffffffffffffffffffffffff191614915050949350505050565b600090565b50505050565b50505050565b60006127fc826040518060400160405280602081526020017f5361666545524332303a206c6f772d6c6576656c2063616c6c206661696c65648152508573ffffffffffffffffffffffffffffffffffffffff166128739092919063ffffffff16565b905060008151111561285c578080602001905181019061281c919061310c565b61285b576040517f08c379a000000000000000000000000000000000000000000000000000000000815260040161285290613833565b60405180910390fd5b5b505050565b61286e838383600161288b565b505050565b60606128828484600085612c59565b90509392505050565b600080549050600073ffffffffffffffffffffffffffffffffffffffff168573ffffffffffffffffffffffffffffffffffffffff1614156128f8576040517f2e07630000000000000000000000000000000000000000000000000000000000815260040160405180910390fd5b6000841415612933576040517fb562e8dd00000000000000000000000000000000000000000000000000000000815260040160405180910390fd5b612940600086838761278e565b83600560008773ffffffffffffffffffffffffffffffffffffffff1673ffffffffffffffffffffffffffffffffffffffff16815260200190815260200160002060000160008282829054906101000a900467ffffffffffffffff160192506101000a81548167ffffffffffffffff021916908367ffffffffffffffff16021790555083600560008773ffffffffffffffffffffffffffffffffffffffff1673ffffffffffffffffffffffffffffffffffffffff16815260200190815260200160002060000160088282829054906101000a900467ffffffffffffffff160192506101000a81548167ffffffffffffffff021916908367ffffffffffffffff160217905550846004600083815260200190815260200160002060000160006101000a81548173ffffffffffffffffffffffffffffffffffffffff021916908373ffffffffffffffffffffffffffffffffffffffff160217905550426004600083815260200190815260200160002060000160146101000a81548167ffffffffffffffff021916908367ffffffffffffffff160217905550600081905060008582019050838015612b0a5750612b098773ffffffffffffffffffffffffffffffffffffffff16612606565b5b15612bd0575b818773ffffffffffffffffffffffffffffffffffffffff16600073ffffffffffffffffffffffffffffffffffffffff167fddf252ad1be2c89b69c2b068fc378daa952ba7f163c4a11628f55a4df523b3ef60405160405180910390a4612b7f6000888480600101955088612629565b612bb5576040517fd1a57ed600000000000000000000000000000000000000000000000000000000815260040160405180910390fd5b80821415612b10578260005414612bcb57600080fd5b612c3c565b5b818060010192508773ffffffffffffffffffffffffffffffffffffffff16600073ffffffffffffffffffffffffffffffffffffffff167fddf252ad1be2c89b69c2b068fc378daa952ba7f163c4a11628f55a4df523b3ef60405160405180910390a480821415612bd1575b816000819055505050612c526000868387612794565b5050505050565b606082471015612c9e576040517f08c379a0000000000000000000000000000000000000000000000000000000008152600401612c9590613773565b60405180910390fd5b612ca785612606565b612ce6576040517f08c379a0000000000000000000000000000000000000000000000000000000008152600401612cdd90613813565b60405180910390fd5b6000808673ffffffffffffffffffffffffffffffffffffffff168587604051612d0f919061355c565b60006040518083038185875af1925050503d8060008114612d4c576040519150601f19603f3d011682016040523d82523d6000602084013e612d51565b606091505b5091509150612d61828286612d6d565b92505050949350505050565b60608315612d7d57829050612dcd565b600083511115612d905782518084602001fd5b816040517f08c379a0000000000000000000000000000000000000000000000000000000008152600401612dc49190613671565b60405180910390fd5b9392505050565b6040518060600160405280600073ffffffffffffffffffffffffffffffffffffffff168152602001600067ffffffffffffffff1681526020016000151581525090565b6000612e2a612e25846138ae565b613889565b905082815260208101848484011115612e4257600080fd5b612e4d848285613b1e565b509392505050565b600081359050612e6481614076565b92915050565b600081359050612e798161408d565b92915050565b600081359050612e8e816140a4565b92915050565b600081519050612ea3816140a4565b92915050565b600081359050612eb8816140bb565b92915050565b600081519050612ecd816140bb565b92915050565b600082601f830112612ee457600080fd5b8135612ef4848260208601612e17565b91505092915050565b600081359050612f0c816140d2565b92915050565b600081359050612f21816140e9565b92915050565b600081519050612f36816140e9565b92915050565b600060208284031215612f4e57600080fd5b6000612f5c84828501612e55565b91505092915050565b600060208284031215612f7757600080fd5b6000612f8584828501612e6a565b91505092915050565b60008060408385031215612fa157600080fd5b6000612faf85828601612e55565b9250506020612fc085828601612e55565b9150509250929050565b600080600060608486031215612fdf57600080fd5b6000612fed86828701612e55565b9350506020612ffe86828701612e55565b925050604061300f86828701612f12565b9150509250925092565b6000806000806080858703121561302f57600080fd5b600061303d87828801612e55565b945050602061304e87828801612e55565b935050604061305f87828801612f12565b925050606085013567ffffffffffffffff81111561307c57600080fd5b61308887828801612ed3565b91505092959194509250565b600080604083850312156130a757600080fd5b60006130b585828601612e55565b92505060206130c685828601612e7f565b9150509250929050565b600080604083850312156130e357600080fd5b60006130f185828601612e55565b925050602061310285828601612f12565b9150509250929050565b60006020828403121561311e57600080fd5b600061312c84828501612e94565b91505092915050565b60006020828403121561314757600080fd5b600061315584828501612ea9565b91505092915050565b60006020828403121561317057600080fd5b600061317e84828501612ebe565b91505092915050565b60006020828403121561319957600080fd5b60006131a784828501612efd565b91505092915050565b600080604083850312156131c357600080fd5b60006131d185828601612efd565b92505060206131e285828601612e55565b9150509250929050565b6000602082840312156131fe57600080fd5b600061320c84828501612f12565b91505092915050565b60006020828403121561322757600080fd5b600061323584828501612f27565b91505092915050565b61324781613ae8565b82525050565b61325681613a42565b82525050565b61326581613a66565b82525050565b6000613276826138df565b61328081856138f5565b9350613290818560208601613b2d565b61329981613c7f565b840191505092915050565b60006132af826138df565b6132b98185613906565b93506132c9818560208601613b2d565b80840191505092915050565b60006132e0826138ea565b6132ea8185613911565b93506132fa818560208601613b2d565b61330381613c7f565b840191505092915050565b600061331b601583613911565b915061332682613c90565b602082019050919050565b600061333e602683613911565b915061334982613cb9565b604082019050919050565b6000613361602783613911565b915061336c82613d08565b604082019050919050565b6000613384602683613911565b915061338f82613d57565b604082019050919050565b60006133a7603a83613911565b91506133b282613da6565b604082019050919050565b60006133ca601483613911565b91506133d582613df5565b602082019050919050565b60006133ed601d83613911565b91506133f882613e1e565b602082019050919050565b6000613410602683613911565b915061341b82613e47565b604082019050919050565b6000613433602b83613911565b915061343e82613e96565b604082019050919050565b6000613456602883613911565b915061346182613ee5565b604082019050919050565b6000613479602083613911565b915061348482613f34565b602082019050919050565b600061349c601583613911565b91506134a782613f5d565b602082019050919050565b60006134bf605183613922565b91506134ca82613f86565b605182019050919050565b60006134e2600083613906565b91506134ed82613ffb565b600082019050919050565b6000613505601d83613911565b915061351082613ffe565b602082019050919050565b6000613528602a83613911565b915061353382614027565b604082019050919050565b61354781613ab0565b82525050565b61355681613ade565b82525050565b600061356882846132a4565b915081905092915050565b600061357e826134b2565b9150819050919050565b6000613593826134d5565b9150819050919050565b60006020820190506135b2600083018461324d565b92915050565b60006040820190506135cd600083018561323e565b6135da602083018461354d565b9392505050565b60006080820190506135f6600083018761324d565b613603602083018661324d565b613610604083018561354d565b8181036060830152613622818461326b565b905095945050505050565b6000604082019050613642600083018561324d565b61364f602083018461354d565b9392505050565b600060208201905061366b600083018461325c565b92915050565b6000602082019050818103600083015261368b81846132d5565b905092915050565b600060208201905081810360008301526136ac8161330e565b9050919050565b600060208201905081810360008301526136cc81613331565b9050919050565b600060208201905081810360008301526136ec81613354565b9050919050565b6000602082019050818103600083015261370c81613377565b9050919050565b6000602082019050818103600083015261372c8161339a565b9050919050565b6000602082019050818103600083015261374c816133bd565b9050919050565b6000602082019050818103600083015261376c816133e0565b9050919050565b6000602082019050818103600083015261378c81613403565b9050919050565b600060208201905081810360008301526137ac81613426565b9050919050565b600060208201905081810360008301526137cc81613449565b9050919050565b600060208201905081810360008301526137ec8161346c565b9050919050565b6000602082019050818103600083015261380c8161348f565b9050919050565b6000602082019050818103600083015261382c816134f8565b9050919050565b6000602082019050818103600083015261384c8161351b565b9050919050565b6000602082019050613868600083018461353e565b92915050565b6000602082019050613883600083018461354d565b92915050565b60006138936138a4565b905061389f8282613b92565b919050565b6000604051905090565b600067ffffffffffffffff8211156138c9576138c8613c50565b5b6138d282613c7f565b9050602081019050919050565b600081519050919050565b600081519050919050565b600082825260208201905092915050565b600081905092915050565b600082825260208201905092915050565b600081905092915050565b600061393882613ade565b915061394383613ade565b9250827fffffffffffffffffffffffffffffffffffffffffffffffffffffffffffffffff0382111561397857613977613bc3565b5b828201905092915050565b600061398e82613ade565b915061399983613ade565b9250826139a9576139a8613bf2565b5b828204905092915050565b60006139bf82613ade565b91506139ca83613ade565b9250817fffffffffffffffffffffffffffffffffffffffffffffffffffffffffffffffff0483118215151615613a0357613a02613bc3565b5b828202905092915050565b6000613a1982613ade565b9150613a2483613ade565b925082821015613a3757613a36613bc3565b5b828203905092915050565b6000613a4d82613abe565b9050919050565b6000613a5f82613abe565b9050919050565b60008115159050919050565b60007fffffffff0000000000000000000000000000000000000000000000000000000082169050919050565b6000613aa982613a42565b9050919050565b600061ffff82169050919050565b600073ffffffffffffffffffffffffffffffffffffffff82169050919050565b6000819050919050565b6000613af382613afa565b9050919050565b6000613b0582613b0c565b9050919050565b6000613b1782613abe565b9050919050565b82818337600083830152505050565b60005b83811015613b4b578082015181840152602081019050613b30565b83811115613b5a576000848401525b50505050565b60006002820490506001821680613b7857607f821691505b60208210811415613b8c57613b8b613c21565b5b50919050565b613b9b82613c7f565b810181811067ffffffffffffffff82111715613bba57613bb9613c50565b5b80604052505050565b7f4e487b7100000000000000000000000000000000000000000000000000000000600052601160045260246000fd5b7f4e487b7100000000000000000000000000000000000000000000000000000000600052601260045260246000fd5b7f4e487b7100000000000000000000000000000000000000000000000000000000600052602260045260246000fd5b7f4e487b7100000000000000000000000000000000000000000000000000000000600052604160045260246000fd5b6000601f19601f8301169050919050565b7f4e6f7420656e6f7567682045746865722073656e740000000000000000000000600082015250565b7f4f776e61626c653a206e6577206f776e657220697320746865207a65726f206160008201527f6464726573730000000000000000000000000000000000000000000000000000602082015250565b7f43616e6e6f74206d696e74206d6f7265207468616e203230204e46547320617460008201527f20612074696d6500000000000000000000000000000000000000000000000000602082015250565b7f5061796d656e7453706c69747465723a206163636f756e7420686173206e6f2060008201527f7368617265730000000000000000000000000000000000000000000000000000602082015250565b7f416464726573733a20756e61626c6520746f2073656e642076616c75652c207260008201527f6563697069656e74206d61792068617665207265766572746564000000000000602082015250565b7f546f6b656e20646f6573206e6f74206578697374000000000000000000000000600082015250565b7f416464726573733a20696e73756666696369656e742062616c616e6365000000600082015250565b7f416464726573733a20696e73756666696369656e742062616c616e636520666f60008201527f722063616c6c0000000000000000000000000000000000000000000000000000602082015250565b7f5061796d656e7453706c69747465723a206163636f756e74206973206e6f742060008201527f647565207061796d656e74000000000000000000000000000000000000000000602082015250565b7f43616e6e6f74206d696e74207768696c652074686520636f6e7472616374206960008201527f7320706175736564000000000000000000000000000000000000000000000000602082015250565b7f4f776e61626c653a2063616c6c6572206973206e6f7420746865206f776e6572600082015250565b7f43616e6e6f742073657420707269636520746f20300000000000000000000000600082015250565b7f68747470733a2f2f697066732e696f2f697066732f516d5451633535677a735260008201527f41655a4247726466537378777a385574723372357a445a774135397a6648394a60208201527f63714b2f6d657461646174612e6a736f6e000000000000000000000000000000604082015250565b50565b7f416464726573733a2063616c6c20746f206e6f6e2d636f6e7472616374000000600082015250565b7f5361666545524332303a204552433230206f7065726174696f6e20646964206e60008201527f6f74207375636365656400000000000000000000000000000000000000000000602082015250565b61407f81613a42565b811461408a57600080fd5b50565b61409681613a54565b81146140a157600080fd5b50565b6140ad81613a66565b81146140b857600080fd5b50565b6140c481613a72565b81146140cf57600080fd5b50565b6140db81613a9e565b81146140e657600080fd5b50565b6140f281613ade565b81146140fd57600080fd5b5056fea26469706673582212205b761adbc2c36ee309189aede3cd5cde8574bd338e586c54673b21295ba3965b64736f6c63430008040033",
  "linkReferences": {},
  "deployedLinkReferences": {}
}